:020000040800F2
:10000000FF7F00206D120008210500082D05000863
:1000100033050008390500083F050008000000000E
:10002000000000000000000000000000450500087E
:1000300051050008000000005D0500086905000882
:10004000B5120008B5120008B5120008B512000874
:10005000B5120008B51200088D040008B51200089A
:10006000B5120008B5120008B5120008B512000854
:10007000B5120008B5120008B5120008B512000844
:10008000B5120008B5120008B5120008B512000834
:10009000B5120008B5120008B5120008B512000824
:1000A000B5120008B5120008B5120008B512000814
:1000B000B5120008B5120008B5120008B512000804
:1000C000B5120008B5120008B5120008B5120008F4
:1000D000B5120008B5120008B5120008B5120008E4
:1000E000B5120008B5120008B512000800000000A3
:1000F0000000000000000000000000000000000000
:1001000000000000B5120008B51200080000000051
:10011000B5120008B5120008000000000000000041
:10012000B5120008B5120008B5120008B512000893
:1001300000000000000000000000000000000000BF
:10014000000000000000000000000000B5120008E0
:100150000000000000000000B5120008B512000801
:10016000000000000000000000000000B5120008C0
:1001700010B5054C237833B9044B13B10448AFF3E1
:1001800000800123237010BD280000200000000023
:100190000013000808B5034B1BB103490348AFF334
:1001A000008008BD000000002C00002000130008A3
:1001B00080B500AF00F0B6F8002000F035F801205F
:1001C00000F032F8022000F02FF8002000F060F874
:1001D000012000F05DF8022000F05AF800F002F86B
:1001E00000BF80BD80B582B000AF01210C4800F097
:1001F00089FA3B46184600F0D2FD0123FB7100232B
:100200003B710023BB7101233B6028237B713B467C
:100210001946044800F028FD00BF0837BD4680BDE0
:10022000020018000008014080B584B000AF03460A
:10023000FB71FB79134A52F823300121184600F074
:1002400061FA07F10803184600F0A9FD0123FB73CA
:1002500000233B731023BB73FB790B4A32F8133036
:10026000BB6004237B73FB79084A52F8233007F103
:1002700008021146184600F0F7FC00BF1037BD46D3
:1002800080BD00BF140000200C00002000000020F2
:1002900080B483B000AF0346FB71FB79022B10D80A
:1002A000FB790A4A32F81330002B0BD0FB79074A4E
:1002B00032F81310FB79064A52F823300A461A61C5
:1002C00000E000BF0C37BD4680BC70470C0000202A
:1002D0000000002080B483B000AF0346FB71FB79BF
:1002E000022B16D8FB790D4A32F81330002B11D0AF
:1002F000FB790B4A52F82330DA68FB79074931F869
:1003000013301846FB79064951F823304240DA6031
:1003100000E000BF0C37BD4680BC70470C000020D9
:100320000000002080B500AF042000F081FC094BE4
:100330001B68094AA2FB03239B0C084A1360074B66
:100340001B684FF47A7202FB03F3054A136000BF87
:1003500080BD00BF2400002083DE1B43440000203A
:100360004800002080B485B000AF0346FB80002326
:10037000FB6035E0FB88322B0AD91E4B1B681E4AF6
:10038000322101FB03F35360FB88323BFB8008E022
:10039000FB88184A1268184902FB03F34B600023DC
:1003A000FB80154B00229A60134B1B68124A43F0E6
:1003B00001031360104B1B68FB60FB6803F0010333
:1003C000002B04D0FB6803F48033002BF2D00A4BDF
:1003D0001B68094A23F001031360074B00229A604F
:1003E000FB88002BC6D100BF00BF1437BD4680BCC0
:1003F000704700BF4800002010E000E080B584B0E6
:1004000000AF01214FF4C01000F07CF90021002062
:1004100000F0F8FC3B1D184600F06EFD01237B73D5
:1004200000233B710123BB6000233B733B1D184637
:1004300000F078FD032000F0EEFB002200210620F2
:1004400000F0C8FB00BF1037BD4680BD80B500AFCF
:100450000520FFF787FF012000F0C8FD01210948B2
:1004600000F0B6FC0346012B0AD1074B1B78042B86
:1004700003D1054B01221A7002E0034B04221A70CB
:1004800000BF80BD000801402000002080B500AF03
:10049000FFF7DCFF00BF80BD80B500AF00F06AF859
:1004A000FFF786FEFFF7AAFF0020FFF713FF1B4BA5
:1004B0001B789BB21A46920013441A4691001A46C2
:1004C0000B4613449B009BB21846FFF74BFF0120DD
:1004D000FFF700FF114B1B789BB21A4692001344A2
:1004E0001A4691001A460B4613449B009BB21846CD
:1004F000FFF738FF0220FFF7EDFE084B1B789BB299
:100500001A46920013441A4691001A460B461344A9
:100510009B009BB21846FFF725FFC5E7200000208F
:1005200080B400AF00BFBD4680BC704780B400AF50
:10053000FEE780B400AFFEE780B400AFFEE780B412
:1005400000AFFEE780B400AF00BFBD4680BC70477F
:1005500080B400AF00BFBD4680BC704780B400AF20
:1005600000BFBD4680BC704780B400AF00BFBD4631
:1005700080BC704780B500AF1E4B1B681D4A43F41A
:10058000AA73136000F038F80121012000F0F8F898
:1005900000BF00F092F80346002BFAD0232102207E
:1005A00000F082F90121022000F0EAF800BF1920D2
:1005B00000F05CF80346012BF9D1002000F032F97D
:1005C000042000F05BF9042000F042F9012000F063
:1005D0003DFA022000F016FA00BF00F029FA0346A7
:1005E000022BFAD1002000F031FA00F061FD00BFCB
:1005F00080BD00BF0020024080B400AF1A4A1368DB
:1006000043F00103136000BF174B1B68C3F34003A3
:10061000DBB2012BF8D1144A53686FF30103536026
:1006200000BF114B5B68C3F38103DBB2002BF8D131
:100630000D4B00225A600C4B41F61072DA620A4BE5
:100640001B68094A23F0867323F480331360064B3A
:100650004FF480121A63044B4FF41F029A6000BFDC
:10066000BD4680BC704700BF0010024080B485B01A
:1006700000AF78600023FB737B681B0C03F18043A1
:1006800003F504331A687B6803F01F03012101FAA4
:1006900003F31A407B6803F01F03012101FA03F3FF
:1006A0009A4202D00023FB7301E00123FB73FB7B22
:1006B00018461437BD4680BC704780B582B000AF85
:1006C00000237B600023FB7002E07B6801337B60CA
:1006D0001120FFF7CBFF0346012B03D07B68B3F556
:1006E000405FF2D31120FFF7C1FF0346012B02D078
:1006F0000023FB7001E00123FB70FB7818460837EC
:10070000BD4680BD80B483B000AF78600B46FB70FF
:10071000FB78012B16D17B681B0C03F1804303F59A
:10072000043319687B6803F01F0301229A407B6839
:100730001B0C03F1804303F50433184641EA02031E
:10074000036017E07B681B0C03F1804303F504335F
:1007500019687B6803F01F03012202FA03F3DA43EE
:100760007B681B0C03F1804303F50433184601EA50
:100770000203036000BF0C37BD4680BC7047000019
:1007800080B483B000AF03460A46FB711346BB71C9
:10079000FB79042B3ED801A252F823F0B1070008E0
:1007A000C5070008D9070008ED0700080108000880
:1007B0001B4ABB7903F00103D9B2136861F300034C
:1007C000136028E0164ABB7903F00103D9B213681D
:1007D00061F3104313601EE0114ABB7903F001037B
:1007E000D9B2136861F31863136014E00C4ABB7943
:1007F00003F00103D9B2136A61F3000313620AE044
:10080000074ABB7903F00103D9B2536A61F30003CD
:10081000536200E000BF00BF0C37BD4680BC70478C
:100820000010024080B483B000AF0346FB71074A5A
:10083000FB7903F00F03D9B2536861F307135360D8
:1008400000BF0C37BD4680BC704700BF001002409F
:1008500080B483B000AF0346FB71074AFB7903F015
:100860000703D9B2536861F30A23536000BF0C3702
:10087000BD4680BC704700BF0010024080B483B00A
:1008800000AF0346FB71074AFB7903F00703D9B2B7
:10089000536861F3CD23536000BF0C37BD4680BC65
:1008A000704700BF0010024080B485B000AF03461F
:1008B0000A46FB711346BB710023FB600023FB72E9
:1008C000FB79002B07D1404A53686FF31043536004
:1008D0003E4BFB6016E03C4A536843F48033536060
:1008E000FB79012B07D13A4BFB60374A53686FF312
:1008F0005143536006E0354BFB60334A536843F481
:1009000000335360FB68334A934206D9FB68324A8E
:10091000934202D80023FB7235E0FB682F4A9342D2
:1009200006D9FB682E4A934202D80123FB722AE0C3
:10093000FB682C4A934206D9FB682B4A934202D8A3
:100940000223FB721FE0FB68284A934206D9FB682A
:10095000274A934202D80323FB7214E0FB68254A1E
:10096000934206D9FB68244A934202D80423FB72BF
:1009700009E0FB68214A934205D9FB68204A93426B
:1009800001D80523FB72104ABB7903F00F03D9B2DB
:10099000536861F395435360BB791B110A4A03F016
:1009A0000303D9B2536861F35E735360064AFB7A5E
:1009B00003F00703D9B2D36A61F31A63D36200BFAD
:1009C0001437BD4680BC70470010024000093D004E
:1009D00000127A0060823B003F4B4C0080584F0071
:1009E0000F5E5F00943577000F1B7F00101B7F00A8
:1009F0001FBCBE00286BEE002FD73D0130D73D0154
:100A0000D7E9DC0180B483B000AF0346FB71074A2D
:100A1000FB7903F00303D9B2536861F30103536018
:100A200000BF0C37BD4680BC704700BF00100240BD
:100A300080B400AF044B5B68C3F38103DBB218469C
:100A4000BD4680BC704700BF0010024080B483B038
:100A500000AF0346FB71FB79012B05D1074A536DAB
:100A600043F03003536504E0044A536D6FF30513FC
:100A7000536500BF0C37BD4680BC70470010024074
:100A800080B485B000AF78607B6803F00703FB603B
:100A90000C4BDB68BB60BA684FF6FF031340BB60CA
:100AA000FB681A02BB68134343F0BF6343F400338F
:100AB000BB60044ABB68D36000BF1437BD4680BC2E
:100AC000704700BF00ED00E080B400AF044BDB686E
:100AD0001B0A03F007031846BD4680BC704700BFE1
:100AE00000ED00E080B483B000AF0346FB7197F9DE
:100AF0000730002B0BDBFB7903F01F02064997F947
:100B000007305B09012000FA02F241F8232000BF00
:100B10000C37BD4680BC704700E100E080B483B074
:100B200000AF03463960FB7197F90730002B0ADBF1
:100B30003B68DAB20C4997F907301201D2B20B4484
:100B400083F800230AE03B68DAB20849FB7903F036
:100B50000F03043B1201D2B20B441A7600BF0C37CC
:100B6000BD4680BC704700BF00E100E000ED00E042
:100B700080B489B000AFF860B9607A60FB6803F0B8
:100B80000703FB61FB69C3F10703042B28BF0423A0
:100B9000BB61FB690433062B02D9FB69033B00E010
:100BA00000237B614FF0FF32BB6902FA03F3DA43A3
:100BB000BB681A407B699A404FF0FF317B6901FAAC
:100BC00003F3D9437B680B40134318462437BD46D3
:100BD00080BC704780B586B000AF0346B9607A60CC
:100BE000FB7300237B61FFF76FFF03467A68B968E8
:100BF0001846FFF7BDFF786197F90F3079691846FD
:100C0000FFF78CFF97F90F301846FFF76BFF00BF17
:100C10001837BD4680BD80B582B000AF0346FB717A
:100C2000FB791846FFF72CFF00BF0837BD4680BD93
:100C300080B483B000AF0346FB71FB79042B06D16F
:100C4000084B1B68074A43F00403136005E0054B9B
:100C50001B68044A23F00403136000BF0C37BD4631
:100C600080BC704710E000E080B485B000AF7860D1
:100C700039603B681B683B813B689B79032B02D141
:100C800000237B8130E03B689B79002B15D13B68CA
:100C90005B799BB203F00F037B813B685B79182B78
:100CA00003D13A897B681A611EE03B685B79282B87
:100CB0001AD13A897B685A6116E03B689B791BB26E
:100CC00003F008031AB23B681B791BB203F004035C
:100CD0001BB213431AB23B68DB791BB203F0030368
:100CE0001BB213431BB27B813B89DBB2002B25D0A7
:100CF0000023FB601FE03A89FB6842FA03F303F02C
:100D00000103002B14D07B681B68FA6892000F2146
:100D100001FA02F2D2431A407B681A607B681B68B2
:100D20007989FA68920001FA02F21A437B681A6024
:100D3000FB680133FB60FB68072BDCD93B89FF2B89
:100D400028D93B891B0A3B810023FB601FE03A89BD
:100D5000FB6842FA03F303F00103002B14D07B6815
:100D60005B68FA6892000F2101FA02F2D2431A403E
:100D70007B685A607B685B687989FA68920001FA3F
:100D800002F21A437B685A60FB680133FB60FB6820
:100D9000072BDCD900BF1437BD4680BC704780B438
:100DA00083B000AF78607B684FF6FF721A607B6893
:100DB00000229A717B6800221A717B6804225A71A2
:100DC0007B680122DA7100BF0C37BD4680BC7047DA
:100DD00080B485B000AF78600B467B800023FB7346
:100DE0007A8879887B689B680B409A4202D00023FE
:100DF000FB7301E00123FB73FB7B18461437BD46F0
:100E000080BC704780B485B000AF03460A46FB71D2
:100E10001346BB710023FB60BB7903F003039B0007
:100E20000F2202FA03F3FB60BB799B08DBB2032BB2
:100E30005AD801A252F823F0490E0008710E00089A
:100E4000990E0008C10E00082A4B9A68FB68DB4324
:100E5000284913408B60274B9A68F979BB7903F0D6
:100E600003039B0001FA03F3224913438B603CE028
:100E7000204BDA68FB68DB431E491340CB601D4BF7
:100E8000DA68F979BB7903F003039B0001FA03F3F5
:100E900018491343CB6028E0164B1A69FB68DB4303
:100EA000144913400B61134B1A69F979BB7903F0AC
:100EB00003039B0001FA03F30E4913430B6114E093
:100EC0000C4B5A69FB68DB430A4913404B61094BE1
:100ED0005A69F979BB7903F003039B0001FA03F324
:100EE000044913434B6100E000BF00BF1437BD4607
:100EF00080BC70470000014080B483B000AF7860D0
:100F00007B6800225A727B6800225A607B6801224B
:100F10001A727B6801221A7000BF0C37BD4680BC74
:100F20007047000080B485B000AF78600023FB609C
:100F30007B685B68FB602C4B1A68FB68DB432A49C3
:100F400013400B60284B5A68FB68DB43264913406B
:100F50004B607B685B7A002B40D07B681B78002B52
:100F600006D1214B1A682049FB6813430B6005E04A
:100F70001D4B5A681C49FB6813434B601A4B9A6817
:100F8000FB68DB43184913408B60174BDA68FB683A
:100F9000DB4315491340CB607B681B7A002B06D1DD
:100FA000114B9A681049FB6813438B6016E07B680D
:100FB0001B7A012B06D10C4BDA680B49FB681343F3
:100FC000CB600BE0084B9A680749FB6813438B60C2
:100FD000054BDA680449FB681343CB6000BF143744
:100FE000BD4680BC704700BF0004014080B483B0A0
:100FF00000AF7860034A7B68536100BF0C37BD4681
:1010000080BC70470004014080B400AF254AD3691A
:1010100043F08053D361244B1B78DBB2224A43F068
:101020000403DBB213701F4AD3696FF31C73D361DF
:101030001C4A136843F00103136000BF194B1B687F
:10104000C3F34003DBB2012BF8D1164A53686FF3A8
:101050000103536000BF134B5B68C3F38103DBB232
:10106000002BF8D10F4B00225A600E4B41F6107244
:10107000DA620C4B1B680B4A23F0867323F480332F
:101080001360084B4FF480121A63064B4FF41F0293
:101090009A60064B4FF000629A6000BFBD4680BC6C
:1010A000704700BF001002405070004000ED00E0AB
:1010B00080B58AB000AF00237B620023FB61002370
:1010C000BB6100237B6100233B6100233B62002363
:1010D000FB600023BB6000237B60FFF7A9FC034695
:1010E000FB70FB78022B21D0022B00F39880002BA1
:1010F00002D0012B16D092E0564B5B6DC3F3402318
:10110000DBB2002B0AD0534B1B6BC3F34063DBB243
:10111000002B03D0504B514A1A6084E04E4B504A8A
:101120001A6080E04C4B4E4A1A607CE0494B5B6889
:10113000C3F30043DBB2BB61464BDB6AC3F3C0734E
:10114000DBB2002B3AD1434B5B68C3F38343DBB282
:101150007B62404B5B68C3F34173DBB2FB61FB69AD
:10116000002B02D17B6A0F2B06D1FB691A017B6A27
:10117000134401337B6202E07B6A02337B62BB690A
:10118000002B06D17B6A374A02FB03F3324A136015
:1011900049E0304B5B68C3F34043DBB2002B06D021
:1011A0007B6A304A02FB03F32B4A13603BE07B6A05
:1011B0002B4A02FB03F3284A136034E0254BDB6A19
:1011C000C3F30313DBB2FB60224BDB6AC3F30823D8
:1011D0009BB2BB601F4BDB6AC3F30203DBB27B60D5
:1011E000BB69002B02D11F4B3B620BE0194B5B68C4
:1011F000C3F34043DBB2002B02D01A4B3B6201E049
:10120000174B3B623B6ABA6803FB02F2F9687B68E2
:1012100001FA03F3B2FBF3F30F4A136003E00E4B42
:101220000F4A1A6000BF0B4B5B68C3F30313DBB2BA
:101230007B610D4A7B6913441B783B61064B1A683E
:101240003B6922FA03F3044A136000BF2837BD4606
:1012500080BD00BF0010024024000020006CDC02B2
:1012600000127A0000093D0018130008002103E075
:101270000B4B5B58435004310A480B4B42189A42BF
:10128000F6D30A4A02E0002342F8043B084B9A4294
:10129000F9D3FFF7B9FE00F00FF8FFF7FDF870473C
:1012A0003013000800000020280000202800002043
:1012B0004C000020FEE7000070B50D4D0D4C641B86
:1012C000A4100026A64209D10B4D0C4C00F018F8D2
:1012D000641BA4100026A64205D170BD55F8043B3E
:1012E00098470136EEE755F8043B98470136F2E798
:1012F0002813000828130008281300082C130008DE
:10130000F8B500BFF8BC08BC9E467047F8B500BFF2
:08131000F8BC08BC9E467047C2
:10131800000000000000000001020304060708099D
:041328009501000823
:04132C007101000843
:1013300000100140001001400010014004000800AE
:101340002000000004001800040018000400180029
:081350000100000000127A0008
:040000050800126D70
:00000001FF
